{"abi":[{"type":"function","name":"get","inputs":[],"outputs":[{"name":"","type":"uint256","internalType":"uint256"}],"stateMutability":"view"},{"type":"function","name":"increment","inputs":[{"name":"x","type":"uint256","internalType":"uint256"}],"outputs":[],"stateMutability":"nonpayable"},{"type":"function","name":"incrementWithRevert","inputs":[{"name":"x","type":"uint256","internalType":"uint256"},{"name":"shouldRevert","type":"bool","internalType":"bool"}],"outputs":[{"name":"","type":"uint256","internalType":"uint256"}],"stateMutability":"nonpayable"},{"type":"function","name":"incrementWithRevertPayable","inputs":[{"name":"x","type":"uint256","internalType":"uint256"},{"name":"shouldRevert","type":"bool","internalType":"bool"}],"outputs":[{"name":"","type":"uint256","internalType":"uint256"}],"stateMutability":"payable"},{"type":"function","name":"set","inputs":[{"name":"x","type":"uint256","internalType":"uint256"}],"outputs":[],"stateMutability":"nonpayable"}],"bytecode":{"object":"0x6080604052348015600f57600080fd5b506104018061001f6000396000f3fe60806040526004361061004a5760003560e01c80630436dad61461004f57806360fe47b11461008c5780636d4ce63c146100b55780637cf5dab0146100e05780638f9c474914610109575b600080fd5b34801561005b57600080fd5b5061007660048036038101906100719190610254565b610139565b60405161008391906102a3565b60405180910390f35b34801561009857600080fd5b506100b360048036038101906100ae91906102be565b61019f565b005b3480156100c157600080fd5b506100ca6101a9565b6040516100d791906102a3565b60405180910390f35b3480156100ec57600080fd5b50610107600480360381019061010291906102be565b6101b2565b005b610123600480360381019061011e9190610254565b6101cd565b60405161013091906102a3565b60405180910390f35b60008260008082825461014c919061031a565b925050819055508115610194576040517f08c379a000000000000000000000000000000000000000000000000000000000815260040161018b906103ab565b60405180910390fd5b600054905092915050565b8060008190555050565b60008054905090565b806000808282546101c3919061031a565b9250508190555050565b60006101d98383610139565b905092915050565b600080fd5b6000819050919050565b6101f9816101e6565b811461020457600080fd5b50565b600081359050610216816101f0565b92915050565b60008115159050919050565b6102318161021c565b811461023c57600080fd5b50565b60008135905061024e81610228565b92915050565b6000806040838503121561026b5761026a6101e1565b5b600061027985828601610207565b925050602061028a8582860161023f565b9150509250929050565b61029d816101e6565b82525050565b60006020820190506102b86000830184610294565b92915050565b6000602082840312156102d4576102d36101e1565b5b60006102e284828501610207565b91505092915050565b7f4e487b7100000000000000000000000000000000000000000000000000000000600052601160045260246000fd5b6000610325826101e6565b9150610330836101e6565b9250828201905080821115610348576103476102eb565b5b92915050565b600082825260208201905092915050565b7f54686973206d6574686f6420616c776179732072657665727473000000000000600082015250565b6000610395601a8361034e565b91506103a08261035f565b602082019050919050565b600060208201905081810360008301526103c481610388565b905091905056fea2646970667358221220198367b37ff0fc1d3e251c31d93789985944ce5542fe1479a8f1c9f57801abf364736f6c634300081c0033","linkReferences":{}},"methodIdentifiers":{"get()":"6d4ce63c","increment(uint256)":"7cf5dab0","incrementWithRevert(uint256,bool)":"0436dad6","incrementWithRevertPayable(uint256,bool)":"8f9c4749","set(uint256)":"60fe47b1"},"id":0}